:020000040800F2
:10000000680B0020110500081503000817030008FD
:100010001B0300081F030008230300080000000062
:10002000000000000000000000000000270300089E
:1000300029030008000000002B0300082D0300081E
:100040002B0500082B0500082B0500085324000889
:100050002B0500082B0500082B0500082B050008C0
:100060002B0500082B0500082B0500082B050008B0
:100070002B0500082B0500082B0500082B050008A0
:100080002B0500082B0500082B0500082B05000890
:100090002B0500082B0500082B0500082B05000880
:1000A0002B0500082B0500082B0500082B05000870
:1000B0002B0500082B0500082B0500082B05000860
:1000C0002B0500082B0500082B0500082B05000850
:1000D0002B050008951500082B0500082B050008C6
:1000E0002B0500082B0500082B0500082B05000830
:1000F0002B0500082B0500082B0500082B05000820
:100100002B0500082B0500082B0500082B0500080F
:100110002B0500082B0500082B0500082B050008FF
:100120002B0500082B0500082B0500082B050008EF
:1001300000F002F800F03FF80AA090E8000C8244BA
:100140008344AAF10107DA4501D100F034F8AFF297
:10015000090EBAE80F0013F0010F18BFFB1A43F0A5
:1001600001031847143F0000343F0000103A24BF39
:1001700078C878C1FAD8520724BF30C830C144BF0C
:1001800004680C607047000000230024002500264E
:10019000103A28BF78C1FBD8520728BF30C148BFEA
:1001A0000B607047642902F03782002070471FB54A
:1001B0001FBD10B510BD02F0F7FA1146FFF7F7FFAB
:1001C00000F008F802F015FB03B4FFF7F2FF03BCE0
:1001D00001F086F908B500BF00BF4FF4A06000F041
:1001E000B7F901F01DFA01F043FA01F00FF901F03F
:1001F000BFFB01F075FB02F0CCF800247CE0601C32
:10020000C4B23EA010231A4600210090202001F025
:100210001DFD002010231A460146009001F02AFC23
:100220003748808810231A4600210090084601F0C4
:100230004DFF34A010231A46002100903E2001F00B
:1002400005FD002010231A4601460090382001F0D9
:1002500011FC2B48807910231A4600210090382089
:1002600001F034FF28A010231A46002100905E20E0
:1002700001F0ECFC002010231A46014600904E20AD
:1002800001F0F8FB1E48C07910231A4600210090A7
:100290004E2001F01BFF1DA010231A4602210090E2
:1002A000184601F0D3FC002010231A4602210090CA
:1002B00001F0E0FB1248007810231A46022100905A
:1002C000002001F003FF12A010231A460221009023
:1002D000302001F0BBFC002010231A4602210090C0
:1002E000202001F0C7FB0648407810231A4602215F
:1002F0000090202001F0EAFE81E70000C4EA00003F
:10030000FC040020D4C20000C8D50000A3BA00003D
:10031000B7D60000704700BFFEE700BFFEE700BF92
:10032000FEE700BFFEE77047704770477047000068
:100330000CB50020019000906C48006840F48030BB
:100340006A49086000BF6948006800F40030009006
:100350000198401C0190009818B90198B0F5A06F61
:10036000F1D16248006800F4003010B10120009023
:1003700001E0002000900098012843D15C4800680B
:1003800040F010005A4908600846006820F0030059
:1003900008600846006840F0020008605348406862
:1003A000524948600846406848600846406840F442
:1003B000806048600846406820F47C104860084629
:1003C000406840F4E81048600846006840F08070DB
:1003D000086000BF4548006800F000700028F9D0B0
:1003E0004248406820F003004049486008464068A1
:1003F00040F00200486000BF3C48406800F00C003C
:100400000828F9D10CBD10B5FFF792FF10BD10B54B
:100410003648006840F001003449086008464068EA
:10042000344908403149486008460068324908406C
:100430002E4908600846006820F4802008600846BD
:10044000406820F4FE0048604FF41F008860FFF70A
:10045000DAFF4FF000602949086010BD10B5002197
:1004600000200022214B5B6803F00C0121B104291C
:1004700006D0082928D107E0214B224C236027E031
:100480001F4B204C236023E0184B5B6803F4701073
:10049000164B5B6803F48032022303EB904022B9D1
:1004A000194B4343174C23600DE0104B5B6803F47A
:1004B000003323B1144B4343124C236003E0104B31
:1004C0004343104C236003E00D4B0E4C236000BFF0
:1004D00000BF064B5B68C3F303130C4CE15C094B94
:1004E0001B68CB40074C236010BD00000010024089
:1004F000002002400000FFF8FFFFF6FE08ED00E0DC
:1005000000127A000000002000093D0004000020D5
:100510000948804709480047FEE7FEE7FEE7FEE797
:10052000FEE7FEE7FEE7FEE7FEE7FEE704480549D3
:10053000054A064B704700000F040008310100080F
:1005400068050020680B002068070020680700206D
:1005500031490143314A1160704770B500210023D1
:100560000F22C47804B32D4C246804F4E064C4F56D
:10057000E064210AC1F10403CA40447804FA03F19B
:100580008478144021430901254C0678A15504784C
:1005900004F01F050124AC4005786D11AD0005F194
:1005A000E025C5F8004109E0047804F01F050124A6
:1005B000AC401C4D0678761145F8264070BD1A4AAD
:1005C0000A400243154B1B1F1A60704739B1134A8A
:1005D000121D12680243114B1B1D1A6006E00F4AE0
:1005E000121D126882430D4B1B1D1A6070470428B0
:1005F00008D14FF0E021096941F004014FF0E022F9
:10060000116107E04FF0E021096921F004014FF08A
:10061000E0221161704700000000FA050CED00E0D7
:1006200000E400E080E100E080FFFF1F10B5012042
:1006300000F014FC002000F011FC10BD2A490860F5
:1006400070472949091F08607047274984310860AD
:10065000704701460020254A10884FF67F4210401F
:100660000843224A10807047014600201F4A108824
:100670004FF68072104008431C4A1080704708B53E
:1006800000220092194A2C3A0092009A02440092E9
:10069000009A116008BD08B501460020009013487B
:1006A0002C3800900098084400900098008808BDFD
:1006B0000D489C300068C0B270470C480830008874
:1006C00040F0010009490831088070470648A03011
:1006D0000068C0B2704705480830008840F002004A
:1006E000024908310880704704860D422C6C004096
:1006F00010B50446CC48844208D10121042000F002
:1007000093FB0021042000F08FFB46E0C7488442A1
:1007100008D10121082000F087FB0021082000F00B
:1007200083FB3AE0C248844208D10121102000F046
:100730007BFB0021102000F077FB2EE0BD488442B7
:1007400008D10121202000F06FFB0021202000F0C3
:100750006BFB22E0B848844208D10121402000F020
:1007600063FB0021402000F05FFB16E0B3488442A9
:1007700008D10121802000F057FB0021802000F0EB
:1007800053FB0AE0AE48844207D10121801500F0F6
:100790004BFB0021A01500F047FB10BD10B5012157
:1007A000084600F041FB0021012000F03DFB10BD98
:1007B0002DE9F041024600250026002000230024F8
:1007C000002791F803C00CF00F0591F803C00CF05E
:1007D000100CBCF1000F03D091F802C04CEA0505E3
:1007E00091F800C0BCF1000F31D0146800202BE05C
:1007F0004FF0010C0CFA00F3B1F800C00CEA03064C
:100800009E4220D183004FF00F0C0CFA03F7BC433B
:1008100005FA03FC4CEA040491F803C0BCF1280F6C
:1008200006D14FF0010C0CFA00FCC2F814C00AE02B
:1008300091F803C0BCF1480F05D14FF0010C0CFA40
:1008400000FCC2F810C0401C0828D1D31460B1F8D5
:1008500000C0BCF1FF0F34DD546800202EE000F131
:10086000080C4FF0010808FA0CF3B1F800C00CEACC
:1008700003069E4221D183004FF00F0C0CFA03F7C0
:10088000BC4305FA03FC4CEA040491F803C0BCF134
:10089000280F05D100F1080C08FA0CF8C2F81480F2
:1008A00091F803C0BCF1480F07D100F1080C4FF0DC
:1008B000010808FA0CF8C2F81080401C0828CED3B2
:1008C0005460BDE8F0814FF6FF7101800221817014
:1008D0000421C17070470246002093680B400BB1A1
:1008E000012000E0002070470146886880B2704710
:1008F00002460020D3680B400BB1012000E000202D
:1009000070470146C86880B2704701617047416115
:1009100070470AB1016100E041617047C1607047F2
:100920004FF480320A438261816182618269826907
:10093000704702460020434B18684FF680731840FA
:1009400040EA021008433F4B186070473E49C861B7
:100950007047F0B50A46002300240021002500F06E
:100960000046B6F1004F02D1364EF16901E0354E36
:100970007168C0F3034583B200F44016B6F5401F1A
:1009800008D121F070612F4E766826F070662D4FE9
:100990007E6012E000F48016B6F5801F06D10326B3
:1009A00006FA05F4A14341F0706106E0460D3601F8
:1009B00003FA06F6B14341F0706122B1460D3601EB
:1009C00003FA06F6314300F00046B6F1004F02D1BB
:1009D0001C4EF16101E01B4E7160F0BD30B500228C
:1009E0008B071C0F0F2303FA04F2164B08338C10ED
:1009F00053F824309343134C08348D1044F82530B9
:100A000023468C1053F824308C07240F00FA04F48A
:100A100023430C4C08348D1044F8253030BD0A496E
:100A2000DC3108607047000000080140000C014004
:100A3000001001400014014000180140001C01405A
:100A400000200140000001400000204210B50121BB
:100A5000080700F0F6F900214FF0805000F0F1F99E
:100A600010BD2A490862704728490861704701464D
:100A70000020274A106820F0E0000843106070470B
:100A80002249A0310860704710B502460020204B73
:100A9000186820F00300104318601E4B1B6843F0D9
:100AA00004031C4C2360012901D130BF00E020BFAA
:100AB000184B1B6823F00403164C236010BD144828
:100AC000006840F00400124908600846006840F0E1
:100AD000020008600F48006840F004000D490860FB
:100AE00000BF00BF30BF704701460020084A52686F
:100AF0000A400AB1012000E000207047044909685B
:100B000041EA8001024A11607047000000000E4275
:100B10000070004010ED00E0DF48006840F0010088
:100B2000DD49086008464068DC490840DA49486009
:100B300008460068DA490840D74908600846006856
:100B400020F4802008600846406820F4FE004860D9
:100B50004FF41F0088607047CF49096821F4803145
:100B6000CD4A11601146096821F480211160B0F569
:100B7000803F03D0B0F5802F0ED106E0C64909684A
:100B800041F48031C44A116007E0C349096841F467
:100B9000A021C14A116000E000BF00BF704710B53E
:100BA00001460022002300204A11012A02D1BA4C3A
:100BB000236806E0022A02D1B74C236A01E0B64C52
:100BC000636A01F01F02012494401C400CB1012013
:100BD00000E0002010BD38B5002000900024002562
:100BE00000BF3120FFF7DBFF05460098401C009056
:100BF0000098B0F5A06F01D0002DF2D03120FFF7A2
:100C0000CEFF08B1012400E00024204638BD014693
:100C10000020A14A106820F0F80040EAC1001060EE
:100C20007047A04908607047024600209A4B5868F8
:100C300020F47C1042EA01031843974B5860704738
:100C400098490866704701460020934A506820F092
:100C500003000843506070478F48406800F00C0064
:100C60007047014600208C4A506820F0F00008438D
:100C70005060704701460020874A506820F4E060C9
:100C800008435060704701460020834A506820F4B2
:100C9000605040EAC1005060704729B17E4A527AE4
:100CA00002437D4B5A7204E07B4A527A82437A4B6C
:100CB0005A7270477B49D83108607047014600205E
:100CC000754A506820F44040084350607047002146
:100CD000714A20321170704A82F82010012802D027
:100CE00004280AD104E001216B4A2032117005E08A
:100CF0000521694A2032117000E000BF00BF704733
:100D00006949086070476449096A0143624A11628F
:100D10007047654944390860704730B500210022AA
:100D2000002400235C4D6D6805F00C0121B10429FD
:100D300005D0082923D105E05C4D056022E05B4D1C
:100D400005601FE0544D6D6805F47012524D6D68DA
:100D500005F48034022505EB92421CB9544D5543ED
:100D600005600BE04C4D6D6805F400351DB1504D2C
:100D70005543056002E04D4D5543056002E04B4D83
:100D8000056000BF00BF444D6D6805F0F001090922
:100D9000484D6B5C0568DD4045603F4D6D6805F46E
:100DA000E061090A434D6B5C4568DD4085603A4D62
:100DB0006D6805F46051C90A3E4D6B5C4568DD40C5
:100DC000C560354D6D6805F44041890B3A4D6B5C4B
:100DD000C568B5FBF3F5056130BD29B12E4A5269EE
:100DE00002432D4B5A6104E02B4A526982432A4B3D
:100DF0005A61704729B1284A92690243264B9A6189
:100E000004E0254A92698243234B9A61704729B1D5
:100E1000214AD2690243204BDA6104E01E4AD269BA
:100E200082431D4BDA61704729B11B4AD2680243E5
:100E3000194BDA6004E0184AD2688243164BDA6034
:100E4000704729B1144A12690243134B1A6104E036
:100E5000114A12698243104B1A6170471249403996
:100E6000086070470F49C86470470B49C8717047E4
:100E70000948406A40F0807007494862704701465F
:100E80000020054A92680A400AB1012000E00020D3
:100E90007047014988727047001002400000FFF857
:100EA000FFFFF6FE000042428004424200127A0038
:100EB00000093D00140000202400002029B1504A00
:100EC000128802434E4B1A8004E04D4A1288824336
:100ED0004B4B1A8070474A48001D008840F01000B4
:100EE0004749091D088070474548001D00884FF696
:100EF000EF7108404249091D0880704700214048B1
:100F00001C300188001F008841EA0040704700B58E
:100F10000246FFF7E0FF100C394918310880091D1F
:100F20000A80FFF7E1FF00BD00B50246FFF7D3FFDF
:100F3000C2F30340324908310880091D0A80FFF7D7
:100F4000D3FF00BD00B50246FFF7C5FF100C2C49CA
:100F500020310880091D0A80FFF7C6FF00BD002070
:100F60002749103109880907080B254914310988D8
:100F70000843704700BF2248001D008800F0200091
:100F80000028F8D070471E48001D00884FF6F77102
:100F900008401B49091D088000BF1948001D008832
:100FA00000F008000028F8D0704701460020144ADD
:100FB000121D12880A400AB1012000E0002070478B
:100FC0000F49091D098881430D4A121D1180704780
:100FD000014600200A4A121D12880A40D0B2084A6F
:100FE00012880A4012B108B1012000E000207047C9
:100FF0000349091D09888143014A121D1180704768
:101000000028004010B50446FB48844209D1012164
:101010008803FFF709FF00214FF48040FFF704FF2A
:1010200032E0F648844209D101214804FFF709FF64
:1010300000214FF40030FFF704FF25E0F048844220
:1010400009D101218804FFF7FCFE00214FF4802024
:10105000FFF7F7FE18E0EB48844209D10121C804EC
:10106000FFF7EFFE00214FF40020FFF7EAFE0BE050
:10107000E548844208D101210805FFF7E2FE00217E
:101080004FF48010FFF7DDFE10BD2DE9F04786B06C
:1010900005460E460024A24600BFA1460027B0899F
:1010A00000B100BF2F462C8A4CF6FF700440F08838
:1010B00004432C82AC894EF6F3100440B088318989
:1010C0000843718908430443AC81AC8A4FF6FF4062
:1010D0000440B0890443AC8201A8FFF71EFEC64855
:1010E000874202D1DDF810A001E0DDF80CA0A8894C
:1010F00000F4004040B10AEBCA0000EB0A1031686E
:101100004900B0FBF1F807E00AEBCA0000EB0A1057
:1011100031688900B0FBF1F86420B8FBF0F00401FD
:101120002009642101FB1089A88900F4004040B126
:10113000322000EBC900B0FBF1F000F007000443DF
:1011400008E0322000EB09106421B0FBF1F000F060
:101150000F0004432C8106B0BDE8F0874FF4165110
:10116000016000218180C18001810C214181002129
:101170008181704710B502460020108A4FF2FF03AC
:1011800018400B884C8823438C882343CC88234306
:101190001843108210BD0021018041808180C180F0
:1011A000704721B1828942F40052828104E0828931
:1011B0004DF6FF731A4082817047F0B50346002454
:1011C00000260025002040F66A17B94200D100BF72
:1011D0001846C1F3421401F01F06012707FA06F56D
:1011E000012C01D10C3004E0022C01D1103000E0C0
:1011F00014301AB107682F43076002E00768AF4355
:101200000760F0BD1AB1838A0B43838202E0838AB0
:101210008B4383827047028A4FF6F0731A40028232
:10122000028A0A430282704782894FF2FF731A4092
:10123000828182890A438281704721B1828942F08A
:101240000202828104E082894FF6FD731A40828196
:101250007047028A4FF6DF731A400282028A0A43FD
:101260000282704721B1028A42F48042028204E085
:10127000028A4BF6FF731A4002827047C1F30802DC
:101280008280704701468888C0F3080070478189D2
:1012900041F0010181817047028BD2B20283028B3F
:1012A00042EA012202837047028B02F47F420283EA
:1012B000028B0A430283704721B1828A42F02002E6
:1012C000828204E0828A4FF6DF731A40828270477E
:1012D00021B1828A42F01002828204E0828A4FF6B3
:1012E000EF731A408282704721B1828A42F008026D
:1012F000828204E0828A4FF6F7731A408282704736
:1013000021B1828942F40042828103E08289C2F3E2
:101310000E028281704721B1828A42F40062828289
:1013200004E0828A4FF2FF731A4082827047828AF9
:101330004FF6FB731A408282828A0A438282704788
:1013400021B1828A42F00202828204E0828A4FF650
:10135000FD731A408282704702460020B1F5007F7B
:1013600000D100BF13880B400BB1012000E000202A
:10137000704701F40072B2F5007F00D100BFCA438C
:101380000280704770B5024600240023002500202B
:1013900040F66A16B14200D100BFC1F3421501F018
:1013A0001F03012606FA03F3012D02D1968933406B
:1013B00006E0022D02D1168A334001E0968A3340BE
:1013C0000C12012606FA04F41688344013B10CB14D
:1013D000012000E0002070BD10B50022002340F67F
:1013E0006A14A14200D100BF0A1201249440A3B2A2
:1013F000DC43048010BD0000003801400044004080
:1014000000480040004C00400050004010B56FF014
:101410000400FFF7ECF82E4800682E49B0FBF1F00D
:101420002D4908700846007800EB4001C1EBC01060
:101430004FF6FF7101EAC0002849088010BD01463F
:10144000254A12784A434FF0E0235A6100229A61FC
:101450001A46126942F001021A6100BF4FF0E02201
:10146000106900F001021AB100F48032002AF5D0B0
:101470004FF0E022126922F001024FF0E0231A61DE
:1014800000229A6170470146144A12884A434FF07D
:10149000E0235A6100229A611A46126942F0010261
:1014A0001A6100BF4FF0E022106900F001021AB18A
:1014B00000F48032002AF5D04FF0E022126922F0C9
:1014C00001024FF0E0231A6100229A617047000088
:1014D0000000002000127A00280000202A000020CE
:1014E00000BF704700BF4A4A128802F04002002A3B
:1014F000F9D0C2B2464B1B1D1A80704710B586B09A
:101500000446012144F20400FFF774FC4FF400701C
:10151000ADF8140003208DF8160018208DF8170080
:1015200005A93C48FFF744F94FF48060ADF814007A
:1015300004208DF8170005A93648FFF739F9252052
:101540008DF8000003208DF801008DF802000120C5
:101550008DF803006846FFF700F801940020ADF80D
:101560000800ADF80A00ADF80C00ADF810000C2032
:10157000ADF80E0001A92648FFF787FD012240F2D1
:1015800025512348FFF719FE01212148FFF709FEE5
:1015900006B010BD10B540F225511D48FFF7F2FE10
:1015A00010B31B48FFF76EFEC4B21B48008800F45E
:1015B0000040C8B91848008800F4804060B10A2C87
:1015C00003D000201449088020E01348008840F42C
:1015D00000401149088019E00D2C06D10E48008802
:1015E00040F480400C49088010E00B480088C0F3AC
:1015F0000D000A490C5408480088401C0649088020
:1016000008460088C72801DD0020088010BD0000C2
:101610000038014000080140300000203400002064
:1016200008B501212420FFF7E5FB10208DF8030009
:101630000001ADF8000003208DF8020069460A4859
:10164000FFF7B6F84FF480710748FFF75EF92020E6
:10165000ADF8000069460548FFF7AAF804210348E1
:10166000FFF753F908BD00000008014000140140D5
:10167000FA48806940F00800F8498861F848006835
:1016800020F07F40F64908600846006840F0EE60B0
:1016900008604FF6FF70F2490C3108607047002176
:1016A000EE4A1161D1601421516100219161D16133
:1016B0001146096841F00101116011464968E94A83
:1016C0001140E64A516011460968E74A1140E34A71
:1016D00011601146096821F48021116011464968A2
:1016E00021F4FE01516000BFDC494968C1F381016A
:1016F0000029F9D1D94A91601146096841F4803135
:10170000116000BFD5490968C1F340410029F9D0F3
:101710004FF48061D14A5160811EC8B211464968B8
:1017200041EA804151601146496841F4803151607D
:101730001146096841F08071116000BFC74909680E
:10174000490E0029FAD0C549496841F00201C34A4F
:10175000516000BFC1494968C1F381010229F9D133
:10176000704770B50446254600261BE02020BC4982
:101770001431086005F0800010B94020086003E0D3
:101780004020B749103108606806050E0120FFF7B8
:1017900056FE2020B249103108600120FFF74FFEAD
:1017A000701CC6B2082EE1DB2020AD491431086060
:1017B0000120FFF744FE4020A949103108600120B4
:1017C000FFF73DFE2020A649103108600120FFF7F9
:1017D00036FE2020A249143108600120FFF72FFEB9
:1017E00070BD10B540209E49103108600120FFF700
:1017F00026FE20209A49103108600120FFF71FFEC5
:1018000040209749143108600320FFF718FE20207C
:101810009349143108607820FFF7A3FF10BD10B57D
:1018200040208F49143108600120FFF708FE202076
:101830008B49103108600320FFF701FE40208849E2
:101840001031086010BD10B50446FFF7CAFF002034
:10185000FFF787FF2046FFF784FFFFF7E0FF10BD8B
:1018600010B50446FFF7BDFF4020FFF77AFF204682
:10187000FFF777FFFFF7D3FF10BD10B50446102127
:1018800041EA2410FFF7DFFF04F00F00FFF7DBFF52
:1018900010BD10B5044604F1B001C8B2FFF7D3FF84
:1018A00010BD70B5002418E004F1B001C8B2FFF714
:1018B000CAFF0020FFF7C7FF1020FFF7C4FF002575
:1018C00007E06A4901EBC411485DFFF7C9FF681CD6
:1018D000C5B2802DF5DB601CC4B2082CE4DB70BD02
:1018E00070B5002415E004F1B001C8B2FFF7ABFFFA
:1018F0000020FFF7A8FF1020FFF7A5FF002504E058
:101900000020FFF7ADFF681CC5B2802DF8DB601C1E
:10191000C4B2082CE7DB70BD70B5002413E020468C
:10192000FFF791FF0020FFF78EFF1020FFF78BFFDE
:10193000002504E0FF20FFF793FF681CC5B2802D4F
:10194000F8DB601CC4B2082CE9DB70BD70B504463E
:101950000D4605F1B001C8B2FFF775FF102141EA4D
:101960001410FFF770FF04F00F00FFF76CFF70BD5D
:1019700010B5002405E03E49085DFFF764FF601CD8
:10198000C4B2192CF7DBFFF7ABFF00210846FFF7C5
:10199000DDFF10BD10B58D20FFF755FF1420FFF7B8
:1019A00052FFAF20FFF74FFF10BD10B58D20FFF79E
:1019B0004AFF1020FFF747FFAE20FFF744FF10BD9E
:1019C000F0B50346144601F03F0103F07F030CB36A
:1019D0000846CD1701EB5575ED10C5F10705234EEF
:1019E00006EBC316755D0A46CE1701EB5676F61068
:1019F000A1EBC606C6F107070126BE403543CE1748
:101A000001EB5676F610C6F10706184F07EBC31721
:101A1000BD5521E00846CD1701EB5575ED10C5F118
:101A20000705124E06EBC316755D0A46CE1701EB8D
:101A30005676F610A1EBC606C6F107070126BE4092
:101A400065EA0605CE1701EB5676F610C6F10706D5
:101A5000064F07EBC317BD55F0BD00000010024054
:101A6000000C01400000FFF8FFFFF6FEFC00002024
:101A7000563000082DE9F047054688461646994637
:101A8000089F002441462846FFF760FF4FB12C46CF
:101A900004E0FF20FFF7E4FE601CC4B2B442F8DDAE
:101AA00008E02C4604E00020FFF7DAFE601CC4B218
:101AB000B442F8DD08F10100C1B22846FFF746FF45
:101AC0004FB12C4604E0FF20FFF7CAFE601CC4B2F1
:101AD000B442F8DD08E02C4604E00020FFF7C0FE29
:101AE000601CC4B2B442F8DDBDE8F0872DE9F04FC8
:101AF00087B080460F4691469A460024A34640464A
:101B000001F09CF8F84AF94BCDE9000100F0B0FE75
:101B1000CDE9020100F07AFE8046404601F01CF952
:101B20000546284601F034F94146019001F014FAC7
:101B3000EF49029001F044F9039001F00DF90646D7
:101B40000DE00A2096FBF0F100FB11603030C2B2CC
:101B50002046641C04A90A540A2096FBF0F60A20C9
:101B600096FBF0F00028ECD106F13000C2B220461E
:101B7000641C04A90A542E222046641C0A540DE059
:101B80000A2095FBF0F100FB11503030C2B2204624
:101B9000641C04A90A540A2095FBF0F50A2095FB61
:101BA000F0F00028ECD105F13000C2B22046641CF0
:101BB00004A90A540020085509EB0A00441E06E057
:101BC00004A8025D58460BF1010B3A54641E002C28
:101BD000F6DA109810B9002007F80B0007B0BDE83E
:101BE000F08F01460022002908DD03E0521C0A2084
:101BF00091FBF0F10029F9D1D0B2704709B9012069
:101C0000FBE7494203E0521C0A2091FBF0F1002956
:101C1000F9D1D0B2F1E730B503460C461846FFF7CC
:101C2000E0FF05461846FFF7DCFF2044441E0AE0AB
:101C30000A2093FBF0F100FB1130303020700A20B5
:101C400093FBF0F3641E002BF2D130BD2DE9F05F61
:101C50008046894614460A9E0027BA4630E230780C
:101C600020283BDB30787E2838DC30782038C7B23B
:101C700049464046FFF76AFE002507E09D4901EB13
:101C80000711485DFFF7ECFD681CC5B204EBD47189
:101C9000B5EB610FF2DB09F10100C1B24046FFF77D
:101CA00055FE00250CE0A34604EBDB7105EB61015A
:101CB000904A02EB0712505CFFF7D2FD681CC5B2D8
:101CC00004EBD471B5EB610FEDDB761C204604EB21
:101CD000D07108EB610101F0FF08F1E1494640468F
:101CE000FFF734FE7078317800EB01201FFA80FA9C
:101CF0004CF2E771AAEB01008A4576D076DC4BF214
:101D0000E771AAEB01008A4571D03EDC4BF2C93184
:101D1000AAEB01008A456BD01EDC4BF2A911AAEB9D
:101D200001008A457ED00EDCAAF52040A0F5F370B4
:101D3000002878D0A0F6CC60002875D02A2874D06E
:101D4000F12873D152E10F2871D0442870D0A0F24D
:101D500025100028F5D133E140F21732811A904264
:101D600067D00BDCE22874D0A0F21D10002871D0DF
:101D70000D2870D0B0F5F17FE3D1EBE01E296BD0D8
:101D8000C2296AD0F629DCD172E140F2F172811ADF
:101D900090427CD019DCB0F5377F79D00ADC172867
:101DA00077D0F82876D0A0F2BF10002873D057283B
:101DB000C7D11FE1A0F2FD4000286DD0EF286CD004
:101DC000A0F2F9100028BCD1C8E040F21342881AF2
:101DD00091427DD00DDCB1F5EA7F7AD0A1F22121CC
:101DE000002978D0EE29ACD1F4E025E10AE033E116
:101DF000B8E0FF2870D0A0F2EF2000286DD01D2899
:101E00009FD1C2E040F2DB72811A904266D04CDC76
:101E100040F2E632A0EB0201904264D027DCB0F53C
:101E2000307F07E01AE1E9E020E1DDE022E1CDE0EA
:101E3000CAE003E17CD011DCEE287AD0B0F58B7FCC
:101E400078D0B0F5F47F76D0A0F20120002893D1AD
:101E5000A7E0AAE0CCE0F5E0DAE087E0A0F2C3205A
:101E6000C0B3532878D0B0F58D7F85D1D4E040F24F
:101E7000F522881A914269D010DCDB2970D0B1F5C7
:101E8000087F6ED0A1F22B21002991D1A0E092E031
:101E9000E8E073E0B0E067E0C8E06DE023286FD0D1
:101EA0002F2870D0E0288ED198E0B1F5A06F69D0CE
:101EB0002DDC40F2E712A1EB020091426FD01BDC57
:101EC0001C2968D0DF296BD0A1F20311002906E09C
:101ED000AEE04FE03CE0A3E0A4E06AE059E07BD054
:101EE00002298DD18CE043E0F168E388B5F8E43E47
:101EF000000020416F300008B0F5897F70D0B0F548
:101F0000A67F6ED0A0F241200028A0D19CE040F234
:101F10000172881A914246D00FDCA1F204510029C7
:101F200070D021296FD0A1F2EF1100298FD134E0B8
:101F300058E069E06EE02AE00EE003283DD0192861
:101F400035D0A0F2191000288FD13BE0002792E095
:101F5000012790E002278EE003278CE004278AE027
:101F600078E081E0052786E0062784E0072782E005
:101F7000082780E009277EE00A277CE00B277AE02B
:101F80004CE000E050E00C2775E00D2773E00E27D1
:101F900071E00F276FE010276DE011276BE057E02D
:101FA00054E0122767E0132765E0142763E0152744
:101FB00061E016275FE017275DE018275BE00BE084
:101FC000192758E01A2756E01B2754E01C2752E037
:101FD0001D2750E01E274EE01F274CE020274AE037
:101FE00014E027E0212746E0222744E0232742E0AF
:101FF000242740E025273EE026273CE027273AE03B
:10200000282738E01CE02BE02A2734E02B2732E099
:102010002C2730E02D272EE02E272CE02F272AE03A
:10202000302728E0312726E0322724E0332722E03A
:10203000342720E035271EE036271CE037271AE03A
:10204000382718E0392716E03A2714E03B2712E03A
:102050003C2710E03D270EE03E270CE03F270AE03A
:10206000402708E0412706E0422704E0432702E03A
:10207000442700E000BF00BF002507E0264901EB30
:102080004711485DFFF7ECFB681CC5B2A542F5DBC4
:1020900009F10100C1B24046FFF758FC002508E0F5
:1020A0001D4901EB47112A19885CFFF7D9FB681C11
:1020B000C5B2A542F4DBB61C08EB040000F0FF0833
:1020C000307800287FF4CBADBDE8F09F2DE9F047D4
:1020D0008AB005460F4691469A46DDF8488002AE22
:1020E000002402A94046FFF796FD00BF00BF0BE0A9
:1020F00005EBC401C8B210231A4639460096FFF713
:10210000A5FD761C601CC4B24046FFF76AFDA042E4
:10211000EEDC0AB0BDE8F0875F36000808B50320A2
:102120008DF8000000208DF801008DF802000120DC
:102130008DF803006846FEF710FA08BDF0B50346B7
:102140000C461546642093FBF0F0C6B2642093FB66
:10215000F0F700FB1730C1B2132E02DD01F164006D
:10216000C1B20846CF1701EB977701EBA707BAB2C8
:10217000072092FBF0F700FB172082B25719601E70
:10218000DFF8D4C31CF80000384482B2CF1701EB4B
:102190009777BF10A1EB87071FB9032C01DA501EF8
:1021A00082B2072092FBF0F700FB1720C0B2F0BD0F
:1021B0000146CA1701EB92729210A1EB820292B90A
:1021C000642091FBF0F200FB121050B94FF4C8707C
:1021D00091FBF0F200FB121008B9012070470020BB
:1021E000FCE70120FAE70020F8E770B5002600249C
:1021F0000025FEF783FE0646D848B6FBF0F4D84823
:102200000088A0423CD0D6490C8040F2B27510E064
:102210002846FFF7CDFF40B1B4F5B77F02D3A4F550
:10222000B77404E0681C85B206E0A4F26D14681C63
:1022300085B2B4F5B67FEBD800BFCA4885800025CB
:1022400016E0C8498888FFF7B3FF30B1012D04D1EB
:102250001D2C01D31D3C09E00CE0C348405DA042A9
:1022600003D8C148405D241A00E003E0681C85B231
:102270001C2CE6D200BF681CBA498871601CC8716A
:10228000B648B6FBF0F100FB11644FF46160B4FB9B
:10229000F0F0B44908704FF46160B4FBF0F100FB5A
:1022A00011403C21B0FBF1F0AE4948704FF4616041
:1022B000B4FBF0F100FB11403C21B0FBF1F201FB5B
:1022C0001200A84988700B46DA7999799888FFF747
:1022D00035FFA4490872002070BD2DE9F05F064665
:1022E0000F4690469946DDE90AAB002440F2B270F1
:1022F000864203DB40F63300864202DD0120BDE862
:10230000F09F40F2B2750AE02846FFF751FF10B186
:102310009648044401E096480444681C85B2B542DE
:10232000F2DB781EC7B2002510E08F48405D40F216
:10233000A321484304EBC0143046FFF739FF18B11E
:10234000012D01D185480444681C85B2BD42ECDBF7
:10235000A8F1010040F2A321484304EBC014C9EBEB
:102360004910C0EB092004EB0014CAEB0A1004EB7F
:1023700080045C4401214FF0C050FEF748FD01206D
:10238000FEF76FFB2046FEF7C2FDFEF7F3FD0020CF
:10239000B5E71CB5002401214FF0C050FEF737FD12
:1023A0000120FEF75EFB0420FEF775F945F25101AE
:1023B000884240D0FEF73AF90120FEF788FC04E09D
:1023C000601CC4B20A20FFF75EF84120FEF7E7FB6D
:1023D00008B9FA2CF4DBFA2C01DB01201CBD4FF408
:1023E0008070FEF790FC0120FEF793FCFEF7C2FD23
:1023F000FEF7C9FD01210846FEF760FDFEF7BAFDB4
:10240000FEF769FD47F6FF70FEF78EFDFEF7B2FDA1
:102410003720232110230E22CDE90010092140F29C
:10242000E470FFF75AFFFEF75FFD45F2510104200B
:10243000FEF725F907E0FEF7A6FD01210846FEF7A5
:102440003DFDFEF797FDFFF769FEFFF7CEFE00208A
:10245000C4E70EB50120FEF7BBFD08B1FFF7C5FECE
:102460000220FEF7B5FDA0B10220FEF7C1FDFFF787
:10247000BCFE3C4880783B4949783A4A1278CDE91D
:10248000002102903748C3798279818839A000F011
:1024900083F80520FEF7ACFDFEF76CFD0EBD2DE9BF
:1024A000F05F06460F4690469946DDE90AAB0024E8
:1024B00040F2B270864203DB40F63300864202DD12
:1024C0000120BDE8F09F40F2B2750AE02846FFF710
:1024D0006FFE10B12548044401E025480444681CFF
:1024E00085B2B542F2DB781EC7B2002510E01E4867
:1024F000405D40F2A321484304EBC0143046FFF78F
:1025000057FE18B1012D01D114480444681C85B24E
:10251000BD42ECDBA8F1010040F2A321484304EBEB
:10252000C014C9EB4910C0EB092004EB0014CAEB3E
:102530000A1004EB80045C4401214FF0C050FEF708
:1025400066FC0120FEF78DFA2046FEF7FBFCFEF745
:1025500011FD0020B5E700005F4000088051010038
:1025600032000020FC0400206B4000080085E201DE
:102570008033E101416C61726D2054696D653A25CB
:10258000642D25642D25642025643A25643A25644C
:102590000A000000704700000FB4044910B503AAF8
:1025A000029800F0D3F810BC5DF814FB2C0000205A
:1025B0002DE9F0410E460446002020622046E168E5
:1025C000884730B3252805D0D4E901219047206AF7
:1025D000401CF2E7E168204600278847050018D034
:1025E000A5F14100192802D820354FF40067324682
:1025F000294620462760FDF7D5FD40B1012804D0CB
:10260000F61D26F007060836D8E7361DD6E7284619
:10261000DAE7206ABDE8F0812DE9F04106460024A2
:1026200010687529314616A510D0AFF30080002838
:1026300002DA404213A507E031688A0701D512A5E6
:1026400002E0490704D511A5012401E0AFF30080A1
:1026500000210A2206F1240709E0B0FBF2FCB0FBDE
:10266000F2F302FB1C00303078541846491C002855
:10267000F3D123462A463046BDE8F04100F00CB8BD
:10268000000000002D0000002B00000020000000D2
:1026900070477047704770472DE9F0470D469946DF
:1026A0009246044600F124080168880604D5E069D2
:1026B00021F01001216000E00120A84201DD471B4C
:1026C00000E00027A1697A1902EB0900081AA0614D
:1026D0002078C00602D42046AFF30080002608E030
:1026E000D4E901211AF806009047206A401C761CA4
:1026F00020624E45F4DB2078C0060AD52046AFF3B1
:10270000008006E0D4E9012130209047206A401C77
:102710002062381EA7F10107F4DC07E0D4E90121AB
:1027200018F805009047206A401C2062281EA5F179
:102730000105F3DC2046AFF300802078000602D5C7
:102740000220BDE8F0870120FBE70000074B70B5D1
:102750000D467B4400F011F80446284600F020F8AE
:1027600010B14FF0FF3070BD204670BD8FEDFFFF00
:1027700001694A1C02610878704700B58FB0CDE945
:1027800001310021059105497944CDE90310114635
:102790006846FFF70DFF0FB000BD0000E5FFFFFF2B
:1027A000007B00F080007047754600F02BF8AE46C5
:1027B00005006946534620F00700854618B020B54D
:1027C000FDF7B4FEBDE820404FF000064FF00007D3
:1027D0004FF000084FF0000B21F00701AC46ACE8C9
:1027E000C009ACE8C009ACE8C009ACE8C0098D4636
:1027F000704710B50446AFF300802046BDE8104096
:10280000FDF7E2BC004870470805002021F00042B7
:10281000A2F16052B2F5801F01F0004328BFD2F14F
:102820007F6C0BD95FEA001C43EAC20242EB507096
:1028300018BF704728BF20F001007047B2F5801F15
:10284000BCBF184670474FEA410C1CF5001F02D26E
:10285000084600F07CBB70B500F0B2F800000089BB
:10286000FFF7F6BF4FF00040A0F580007047000072
:1028700010B591EA030F48BF83F0004300F1FC80DC
:10288000841A71EB030C05D2121943EB0C03001BE5
:1028900061EB0C01DFF824E14FEA1154A4EB135C67
:1028A0001EEA430F18BF9EEA445F73D023EA0E036B
:1028B000DCF1200E21EA045143F4801332D322FAD2
:1028C0000CFE10EB0E0023FA0CFE41EB0E01CCF1D6
:1028D000200E03FA0EFE10EB0E0051F10001B1F5CF
:1028E000801FCCF1200E32D201EB045112FA0EF20D
:1028F000BDE8104058BF7047401C38BF5FEA420235
:1029000018BF7047002814BF20F0010041F10001FA
:102910004FEA410313F5001F38BF7047A1F1C041D2
:1029200000F09CB8012A43EB0302ACF1200CDCF16F
:102930001F0E32BF4FF0000E23FA0CF310EB030012
:1029400041EB0451B4EB115FD0D0A1EB045101F580
:10295000801149085FEA300001EB04510ED350F1B9
:10296000000038BF12FA0EFE08D1BDE81040C9E7DA
:10297000401C38BF5FEA4202CAD1C3E7BDE810403D
:102980004FEA410313F5001F38BF7047A1F1C04162
:1029900000F064B89EEA445F08D011EA5E0FBDE81B
:1029A000104004BF01F0004100207047BDE8104016
:1029B00070B500F005F800BF64FBBE3E0000E0FF0C
:1029C0000EF1020E2EF0030E5EF8046B364205D4B3
:1029D000012A43EB030515F5001F12D8012841EB2E
:1029E000010C1CF5001F0CD80ED14FEAD17C15F557
:1029F000001F0CEB4C0C0CF1020C08BF4CEBD37C11
:102A000004E04FF0080C01E04FEAD37C0CEB4C05DE
:102A100026FA05F606F00706B6F1040C06D20EEB10
:102A2000860CBDE870404CF0010C6047DFE80CF00C
:102A3000090B02024FF000414FF00000A1F5002108
:102A400070BD19461046012851EB010418BFD4F59A
:102A5000001484BF002001F0004170BD0808A0F5FB
:102A600000114FEA3101704710B591EA030F48BFDA
:102A700083F000433FF504AF841A71EB030C07D2D7
:102A800012198CF0004C43EB0C03001B61EB0C01A2
:102A9000DFF8A4E14FEA1154A4EB135C1EEA430FE4
:102AA00018BF9EEA445F00F0B08023EA6E035242F2
:102AB00021EA0451C3EB6E0338BF5B1EDCF1200E2C
:102AC00025D322FA0CFE10EB0E0043FA0CFE41EB6C
:102AD0000E01CCF1200E03FA0EFE10EB0E0051F1A8
:102AE0000001CCF1200E29D412FA0EF201EB0451B0
:102AF000BDE8104058BF7047401C1CBFB2F1004FEA
:102B0000704700280CBF491C20F00100704712EBF1
:102B1000020E43EB030218BF4FF0010E4EEA4202D1
:102B2000ACF1200CDCF11E0E54D943FA0CFE10EB74
:102B30000E0051F1FF31CCF11E0ED5D50EF1010E74
:102B400012FA0EFE404141EB010101EB445C5FEAE9
:102B50005C5C10D910EBDE7001EB045138BFBEF1A4
:102B6000004FBDE8104018BF704700280CBF491C3B
:102B700020F00100704730D24FEAD42C11F500113B
:102B800024F400641BD0B1FA81F20B3AA41AA41EFB
:102B9000D2F12003914030FA03F31943904001EB46
:102BA000CC71002C01EB0451BDE81040A8BF704768
:102BB00001F1C0414FF0000001F000417047B0FA50
:102BC00080F310FA03F100D110BDE41A173C480558
:102BD000C90AE4E701EB045110BD491001EB0451AF
:102BE000BDE810404FEA300002E04FF000017047AE
:102BF0004A0008BF0042F8D0B2F5001F28BF704756
:102C000001F000414FF0000070479EEA445F07D09A
:102C100011EA5E0FBDE8104004BF0021002070479C
:102C2000BDE8104070B5FFF7CBFE00BF40DFF63EB9
:102C300083F00041104670470000E0FF43004FEA78
:102C4000D30C4FEA3C0C43401FBF40070CF16051CE
:102C500013F0FE4F70471CF0006F03D100200CF002
:102C6000004170470CF0004343EA507010B540EA51
:102C7000CC0000F026F900BF000000924FEA0001EE
:102C8000FFF7ECBE4FF000414FF00000A1F500212E
:102C90007047000090EA010F48BF81F0004100F149
:102CA0006C81421A3CBF801A89184FEAD0524FF00B
:102CB0007F4C1CEA410FA2EBD15318BF9CEA026F74
:102CC00000F03B804FF0004C4CEA00204CEA012120
:102CD00021FA03FC10EB0C0C1ED202F1FF325FEA6A
:102CE0001C2040EBC25038BF70471CF07F0F4FEAEA
:102CF000400C18BFBCF17F4F38BF7047C3F12003B1
:102D0000994008BF20F00100BCF17F4F38BF7047E9
:102D1000A0F1C04000F01BB94FEA3C00000A40EBB4
:102D2000C25028BF1CF0FF0F4FEA400CE6D018BF7E
:102D3000BCF17F4F38BF7047EAE79CEA026F05D0CD
:102D400010EA5C0F08BF00F00040704710B500F0BB
:102D5000B8F800BF64FBBE3E41000B0ED3F19E02EB
:102D600008D950F400034FEA032323FA02F048BFC6
:102D70004042704710B500F0A4F800BF499224808B
:102D8000002070476FF0004282EA20007047000088
:102D900010F0004148BF4042B0FA80F310FA03F24D
:102DA000C3F19D030BD051EAC35101EB122053062E
:102DB00038BF704700F1010008BF20F001007047E4
:102DC0004FF47F0C1CEAD0121EBF1CEAD11392EA0A
:102DD0000C0F93EA0C0F00F0478090EA010F48BFF8
:102DE00042F480724FF0004C4CEA00204CEA012182
:102DF00002EB0302A0FB0113A2F50002002918BF99
:102E000043F001035B0028BF4FEA330342EB224249
:102E10005FEA132C4CEBC2502EBFBCEB436FB2F5F4
:102E20007C0F70474FEA036CBCF1004F08BF20F0E5
:102E30000100B2F57C0F38BF70470BD582F0FF025E
:102E400012F5803FC8BF704700F1C040D8BF00F006
:102E50000040704700F5000C5FEA4C0C48BF70471B
:102E6000B0F1C04000F073B890EA010F0CEAD11342
:102E700048BF42F48072624538BF634504D280EA9D
:102E8000010000F00040704710B500F01AF800BFD4
:102E90008900013E00F007B800F009B85FEA410C74
:102EA0005FEA1C6C08D080EA010000F050B85FEACD
:102EB000400C5FEA1C6CF6D14FF00040A0F580009A
:102EC00070470EF1020E2EF0030E5EF8044B244202
:102ED00004D44FEA4102B2F17F4F11D84FEA4003C8
:102EE000B3F17F4F0CD80ED14FEAD07CB2F17F4FB7
:102EF0000CEB4C0C0CF1020C08BF4CEBD17C04E049
:102F00004FF0080C01E04FEAD17C0CEB4C0324FAA3
:102F100003F404F00704B4F1040C06D20EEB840CA5
:102F2000BDE810404CF0010C6047DFE80CF00708EA
:102F300002024FF00040A0F5800010BD084642009C
:102F400018BFD2F1807288BF00F0004010BDFF2191
:102F500041EAD050C005704780F0004090EA010F70
:102F60007FF59FAE81F0004100F007B890EA010FB5
:102F700048BF81F000413FF594AE421A04D882F078
:102F80000042A0EB020011444FEAD0524FF07F4CB8
:102F90001CEA410FA2EBD15318BF9CEA026F4AD042
:102FA0004FF0004C4CEA00204CEA012121FA03FCCE
:102FB000B0EB0C0C0FD412F0FE0F36D05FEA4C00D1
:102FC0001DD5001240EBC25038BF70471CF03F0FB8
:102FD00018BF70470BE0A2F101025FEA1C2040EB32
:102FE000C25038BF70471CF07F0F18BF7047C3F145
:102FF0002003994014BF401E20F001007047800854
:103000004FEA122308BF7047B0FA80FCA2EB0C0213
:10301000CCF1280C60FA0CF093EA122F04BF00EBFD
:10302000C25070474FEAC3707047130A5FEADC1062
:1030300008BF7047F6E79CEA026F04D010EA5C0F05
:1030400008BF0020704710B5FFF73BFF40DFF63E9A
:1030500081F000407047AED580A83FD300408D146A
:103060002002A1C8DA1281EFD9F1DB30A4A6AF00AB
:103070000000000000000000000000000000000050
:103080000000F80000000000000033000000000015
:10309000100C02100C0200000000000000000000F4
:1030A00040C07840C0780000043F04043F040000A2
:1030B000708888FC08300000182020FF211E00F0D6
:1030C00008F0806018000000310C031E211E000073
:1030D000F00888700000001E21232C192721100001
:1030E000120E0000000000000000000000000000C0
:1030F0000000E01804020000000007182040000053
:10310000020418E000000000402018070000004002
:103110004080F0804040000202010F0102020000E6
:10312000000000E0000000000101010F01010100AA
:10313000000000000000000090700000000000008F
:103140000000000000000000010101010101000079
:10315000000000000000000030300000000000000F
:10316000000000C0380400006018070000000000E4
:10317000E010080810E000000F102020100F0000E1
:10318000001010F8000000000020203F2020000068
:103190007008080808F000003028242221300000C0
:1031A000300808088870000018202121221C000027
:1031B00000804030F8000000060524243F2424004D
:1031C000F88888880808000019202020110E0000C7
:1031D000E0108888900000000F112020201F0000C0
:1031E000180808886818000000003E010000000070
:1031F00070880808887000001C222121221C000011
:10320000F008080810E0000001122222110F00004F
:103210000000C0C0000000000000303000000000CE
:1032200000008000000000000000E000000000003E
:103230000080402010080000010204081020000057
:1032400040404040404000000202020202020000F2
:103250000810204080000000201008040201000037
:10326000704808088870000000003037000000C077
:1032700030C828E810E000071827282F281700007A
:1032800000C038E0000000203C230202273820085C
:10329000F8888888700000203F202020110E00C090
:1032A00030080808083800071820202010080008F7
:1032B000F808080810E000203F202020100F000828
:1032C000F88888E8081000203F20202320180008F4
:1032D000F88888E8081000203F200003000000C0A4
:1032E0003008080838000007182020221E020008B5
:1032F000F808000008F808203F210101213F2000C4
:103300000808F8080800000020203F2020000000E6
:10331000000808F8080800C08080807F00000008CE
:10332000F888C028180800203F200126382000080F
:10333000F8080000000000203F2020202030000876
:10334000F8F800F8F80800203F013E013F2000088F
:10335000F830C00008F808203F200007183F00E0C0
:103360001008080810E0000F10202020100F00089F
:10337000F808080808F000203F210101010000E0E2
:103380001008080810E0000F10282830504F0008DF
:10339000F8888888887000203F2000030C302000C7
:1033A000708808080838000038202121221C0018E5
:1033B0000808F8080818000000203F200000000856
:1033C000F808000008F808001F202020201F00082F
:1033D00078880000C83808000007380E010000088F
:1033E000F800F800F8080000033E013E0300000862
:1033F0001868808068180820302C03032C302008BF
:1034000038C800C83808000000203F200000001025
:10341000080808C838080020382621202018000095
:103420000000FE020202000000007F404040000059
:103430000438C000000000000000010638C0000091
:10344000020202FE000000004040407F0000000039
:103450000004020204000000000000000000000060
:10346000000000000000008080808080808080005C
:103470000202040000000000000000000000000044
:103480000080808000000000192424123F200010DA
:10349000F0008080000000003F112020110E00008D
:1034A00000008080800000000E112020201100000C
:1034B0000080808090F000001F202020103F20001E
:1034C00000808080800000001F2424242417000036
:1034D0008080E0909020000020203F20200000000D
:1034E00000808080808000006B9494949360001032
:1034F000F0008080800000203F210000203F20005D
:10350000809898000000000020203F20200000004C
:103510000000809898000000C08080807F0000102C
:10352000F0000080808000203F2406293020000029
:103530001010F8000000000020203F202000008034
:1035400080808080808000203F20003F20003F80DE
:1035500080008080800000203F210000203F20006C
:1035600000808080800000001F202020201F00801D
:103570008000808000000080FF912020110E00005C
:1035800000008080008000000E11202091FF8080CC
:103590008080008080800020203F212000010000EA
:1035A00000808080808000003324242424190000BF
:1035B0008080E0808000000000001F20201000803C
:1035C00080000000808000001F202020103F20800D
:1035D0008080008080800000030C300C030000809D
:1035E00080008080008080010E300C0738060100CA
:1035F000808080008080000020310E2E31200080ED
:10360000808000008080800081867818060100009C
:10361000808080808080000021302C2221300000BA
:1036200000000000FC020200000000013E404000DB
:10363000000000FF00000000000000FF000000028A
:1036400002FC000000000040403E010000000000BD
:103650008040808000800000000000000100001019
:1036600060028C0000FE9292929292FE0000000492
:10367000047E01407E42427E427E42427E400010F5
:1036800060028C00FE929292929292FE00000004E0
:10369000047E014448507F40407F50484440000031
:1036A00000FC242424FC252624FC2424240400409B
:1036B000308F80844C55252525554C808080009086
:1036C000523410FF10345280708F0808F8080082BE
:1036D0009A566322528E008040330C334080001093
:1036E00010FF109000FE929292F292929E80004201
:1036F000827F0180601F00FC44474444FC000000BE
:1037000000F8888888880808FF08090AC808008027
:10371000601F0010201F80402116182641F8000865
:103720000808F80808081010FF101010F00000102A
:1037300030101F088848300E014080403F000000D4
:1037400000181610D0B89790909092941000000036
:1037500020108C83804146281028444380800040FC
:103760004042CC0088898E88F8888C8B8880000045
:1037700040201F20405048464142445840400040AD
:103780004042CC000444645C47F4444444040000D8
:1037900040201F2044444444447F44444444001097
:1037A0001010FF1050445465C64464544440000453
:1037B00044827F0182824A562322524E82020000B6
:1037C00000FE222222FE00FE828292A29E00008043
:1037D000601F0242827F00FF402F102C43800000B8
:1037E0000090884C57A42454548C8400000000019D
:1037F000018042221A07024282423E0101010080FA
:10380000809E9292929EE0809EB2D2929E8000080C
:1038100008F4949292F10001F2929494F808000056
:103820000000000000FF40404040404000000040D9
:1038300040404040407F40404040404040400002C7
:103840000202020202FE02024282020202020000A0
:103850000000000000FF0000000001060000000062
:10386000FE225A8600FE9292929292FE0000000082
:10387000FF04080700FF4020030C14224140000011
:103880008060F80704E4A4A4BFA4A4E40400000139
:103890000000FF40407F4A4A4A4A4A7F4040004079
:1038A0004042CC0040A09E8282829EA02020000048
:1038B00000003F908840432C102846418080000043
:1038C0001715D55557557D555755D5151700004037
:1038D00040407F555555555555557F404040000057
:1038E0008060F807404848E85F4848484040000189
:1038F0000000FF0000020B1222D20A0600000000A6
:1039000000FE82929292FE92929282FE00000080CD
:10391000601F00001E1212121E40807F0000000077
:1039200004FF242424FF0400FE222222FE0000883B
:10393000482F090919AF48300F0242827F0000105A
:103940001010FF9020984828090E2848A818000257
:1039500042817F0040404242427E4242424000401B
:10396000504E4848FF48484840F80000FF0000001B
:10397000003E0202FF12221E000F40807F00000066
:103980002020A86C2A3928A82A6CA8202000000230
:10399000828190924A4945242210080102020000C7
:1039A0000000F112141010101412F1000000004079
:1039B000300003394141455941417300083000004E
:1039C000042424242424FF24242424240400002167
:1039D000211109FD83412305091129254141008059
:1039E0009090484C57242424544C448080800000FC
:1039F0000000FF4949497F494949FF000000000094
:103A0000FE0222428272022242827202FE00000004
:103A1000FF100806010E100806014E807F000020EE
:103A200030AC6330201018A744A4140C000000220E
:103A3000672212120402FD44444445FD02020000C4
:103A40008060F8070004242425262424240400018F
:103A50000000FF000000F94949494949F900000008
:103A60000000FC54545655545454FC0000000040CF
:103A7000300003394141455941417300083000008D
:103A800040301E101010FF101010101000000081A8
:103A9000814121110D0301030D112141818100009C
:103AA000FE02FA02FE4020D8171010F0101000801D
:103AB00047300F1067804021160816214080000013
:103AC0008060F807003E2222E222223E0000000130
:103AD0000000FF2011090503FF0305091120000460
:103AE0000484E41C0724242424A464240404000281
:103AF0000100FF00020242827F0202020202004035
:103B00004042CC00084888080808FF080808000060
:103B100040201F204040414048504F40404000045A
:103B2000040404F49495969494F4040404040000AA
:103B3000FE02027A4A4A4A4A4A7A0282FE00000695
:103B40000909E6F80C040202020202041E00000049
:103B50000000071F3020404040404020100000007F
:103B60000000BE2A2A2AEA2A2A2A3E000000000073
:103B70004442494949497F49494949414000000077
:103B800004FF242424FF0400FE222222FE000088D9
:103B9000482F090919AF48300F0242827F00000008
:103BA0000000FE82828282828282FE00000000008B
:103BB0000000FF40404040404040FF0000000080C7
:103BC00080808080808080808080808080800000F5
:103BD00000000000000000000000000000000000E5
:103BE000000808080808080808080808000000106D
:103BF00010101010101010101010101010100000E5
:103C000004848484848484848484848404000020E0
:103C100020202020202020202020202020200000E4
:103C2000FC040404FC040404FC040404FC00000080
:103C30007F28242320202020212222227F00000010
:103C400002424242C27E42424242C202020000405E
:103C5000404040784740404040407F404040002046
:103C6000202020202021222C202020202020000085
:103C70004020100C03000000010204186000000046
:103C80002018C744444444FC444444440400000411
:103C900004040704040404FF0404040404040000EE
:103CA0000000FE2222222222222222FE0000008088
:103CB00040300F02020202020242827F0000000036
:103CC000F8010600F0121212F2020202FE000000D9
:103CD000FF0000001F1111111F0040807F00000035
:103CE0002424A4FE232200C03800FF000810600036
:103CF000080601FF01068180404027100C030000E8
:103D0000FE0222DA0600FE2222222222FE0000000B
:103D1000FF08108847300F02020242827F00000035
:103D2000FC8484FC00445454547F54545444000094
:103D30003F10103F0000FF15151555957F0000003E
:103D400000101098A44744A4540C04000000000084
:103D500081898944444A312111090503000000404A
:103D60004042424242C2424242424242404000003D
:103D70002070282423202020242830E00000002068
:103D8000202020202020FF20202020202020008014
:103D9000804020100C0300030C10204080800002A3
:103DA000E22222222222FE2222222222E2020000FB
:103DB000FF00000912007F00091240807F00000010
:103DC0000000E0000000FF0000002040800000082C
:103DD0000403000040807F0000000000010E00107E
:103DE0000C05555555057F0555555505140C000016
:103DF0000041494949494949494949FF00000000F2
:103E000040E050484443404040485060C0000000FB
:103E10000000FE42424242424242FE0000000000D8
:103E200000FE021222C202C23202FE000000008026
:103E3000601F0020100C030C30000F3040F8000011
:103E400040405FF55555555555F55F404000000918
:103E50000985452B51817D01112B458509090000FC
:103E60000000FE92929292929292FE000000000454
:103E7000040404040404FF040404040404040010FF
:103E800010F01F10F000808282E2928A868000404B
:103E90002215081661000040807F0000000000002D
:103EA000FC8484FC10E82427E424342CE000000087
:103EB0003F10103F8043320E033E42424370008069
:103EC000908C848484F58684848484948C8000001F
:103ED00080808446492810102C2340800000000078
:103EE000804020908886808080838C1020408000D5
:103EF000008040201807004080403F000000000084
:103F0000F8012220222AF22222222202FE000000B0
:103F1000FF00001F01017F09110F40807F00000199
:103F200001017F211100070202FF020207000000C9
:103F30000000000000000000000000000000002061
:103F4000102CE7242400F01010FF1010F0000000E7
:103F50000000000000000000000000000000000061
:103F60003F1010103F0000010640807F000000005D
:103F70000000000000000000000000000000000041
:103F8000FC848484FC001010101010FF101000003E
:103F90000000000000000000000000000000000021
:103FA000FF0000001F1111111F0040807F00000062
:103FB0000000000000000000000000000000000001
:103FC000F8010600F0121212F2020202FE000000D6
:103FD00000000000000000000000000000000002DF
:103FE000828190924A494524221008010202000071
:103FF00000000000000000000000000000000000C1
:104000002020A86C2A3928A82A6CA82020000000AB
:10401000000000000000000000000000000000821E
:104020009A566322528E008040330C334080000049
:1040300000000000000000000000000000000090F0
:10404000523410FF10345280708F0808F8080000B6
:104050000000000000000000000000000000000060
:1040600003030601040602050003051F1C1F1E1F93
:104070001E1F1F1E1F1E1F0098400008000000206A
:10408000340000006C010008CC400008340000201F
:10409000340B00008801000800A24A040000000060
:1040A00000000000010203040607080900000000E8
:1040B00001020304010203040607080902040608BA
:0C40C000000000000000000000000000F4
:0400000508000131BD
:00000001FF
